{
  "contractName": "GarmentScanner",
  "abi": [
    {
      "anonymous": false,
      "inputs": [
        {
          "indexed": true,
          "internalType": "string",
          "name": "scanId",
          "type": "string"
        },
        {
          "indexed": false,
          "internalType": "uint256",
          "name": "timestamp",
          "type": "uint256"
        }
      ],
      "name": "ScanStored",
      "type": "event"
    },
    {
      "inputs": [
        {
          "internalType": "uint256",
          "name": "",
          "type": "uint256"
        }
      ],
      "name": "scanIds",
      "outputs": [
        {
          "internalType": "string",
          "name": "",
          "type": "string"
        }
      ],
      "stateMutability": "view",
      "type": "function",
      "constant": true
    },
    {
      "inputs": [
        {
          "internalType": "string",
          "name": "",
          "type": "string"
        }
      ],
      "name": "scans",
      "outputs": [
        {
          "internalType": "string",
          "name": "scanId",
          "type": "string"
        },
        {
          "internalType": "uint256",
          "name": "timestamp",
          "type": "uint256"
        },
        {
          "internalType": "string",
          "name": "fabricType",
          "type": "string"
        },
        {
          "internalType": "string",
          "name": "garmentType",
          "type": "string"
        },
        {
          "internalType": "uint256",
          "name": "conditionScore",
          "type": "uint256"
        },
        {
          "internalType": "string",
          "name": "recommendation",
          "type": "string"
        }
      ],
      "stateMutability": "view",
      "type": "function",
      "constant": true
    },
    {
      "inputs": [
        {
          "internalType": "string",
          "name": "_scanId",
          "type": "string"
        },
        {
          "internalType": "uint256",
          "name": "_timestamp",
          "type": "uint256"
        },
        {
          "internalType": "string",
          "name": "_fabricType",
          "type": "string"
        },
        {
          "internalType": "string",
          "name": "_garmentType",
          "type": "string"
        },
        {
          "internalType": "uint256",
          "name": "_conditionScore",
          "type": "uint256"
        },
        {
          "internalType": "string",
          "name": "_recommendation",
          "type": "string"
        }
      ],
      "name": "storeScanData",
      "outputs": [],
      "stateMutability": "nonpayable",
      "type": "function"
    },
    {
      "inputs": [],
      "name": "getScanCount",
      "outputs": [
        {
          "internalType": "uint256",
          "name": "",
          "type": "uint256"
        }
      ],
      "stateMutability": "view",
      "type": "function",
      "constant": true
    },
    {
      "inputs": [
        {
          "internalType": "string",
          "name": "_scanId",
          "type": "string"
        }
      ],
      "name": "getScanById",
      "outputs": [
        {
          "internalType": "string",
          "name": "",
          "type": "string"
        },
        {
          "internalType": "uint256",
          "name": "",
          "type": "uint256"
        },
        {
          "internalType": "string",
          "name": "",
          "type": "string"
        },
        {
          "internalType": "string",
          "name": "",
          "type": "string"
        },
        {
          "internalType": "uint256",
          "name": "",
          "type": "uint256"
        },
        {
          "internalType": "string",
          "name": "",
          "type": "string"
        }
      ],
      "stateMutability": "view",
      "type": "function",
      "constant": true
    }
  ],
  "bytecode": "0x608060405234801561001057600080fd5b50610bd3806100206000396000f3fe608060405234801561001057600080fd5b50600436106100565760003560e01c8062e62da71461005b5780635daf7c29146100705780638910cb661461009e5780638d742a47146100b3578063b450c22f146100d3575b600080fd5b61006e610069366004610979565b6100e6565b005b61008361007e36600461093e565b61024f565b60405161009596959493929190610aad565b60405180910390f35b6100a66104ae565b6040516100959190610b13565b6100c66100c1366004610a33565b6104b4565b6040516100959190610a93565b6100836100e136600461093e565b610560565b6040518060c00160405280878152602001868152602001858152602001848152602001838152602001828152506000876040516101239190610a77565b9081526020016040518091039020600082015181600001908051906020019061014d929190610824565b506020828101516001830155604083015180516101709260028501920190610824565b506060820151805161018c916003840191602090910190610824565b506080820151600482015560a082015180516101b2916005840191602090910190610824565b505060018054808201825560009190915287516101f992507fb10e2d527612073b26eecdfd717e6a320cf44b4afac2b0732d9fcbe2b7fa0cf6909101906020890190610824565b50856040516102089190610a77565b60405180910390207fcd4b7aed8dbca2e84989af91c4bd32ece3d85978a165e24d08e7882b48c1f6b38660405161023f9190610b13565b60405180910390a2505050505050565b805160208183018101805160008252928201919093012091528054819061027590610b4c565b80601f01602080910402602001604051908101604052809291908181526020018280546102a190610b4c565b80156102ee5780601f106102c3576101008083540402835291602001916102ee565b820191906000526020600020905b8154815290600101906020018083116102d157829003601f168201915b50505050509080600101549080600201805461030990610b4c565b80601f016020809104026020016040519081016040528092919081815260200182805461033590610b4c565b80156103825780601f1061035757610100808354040283529160200191610382565b820191906000526020600020905b81548152906001019060200180831161036557829003601f168201915b50505050509080600301805461039790610b4c565b80601f01602080910402602001604051908101604052809291908181526020018280546103c390610b4c565b80156104105780601f106103e557610100808354040283529160200191610410565b820191906000526020600020905b8154815290600101906020018083116103f357829003601f168201915b50505050509080600401549080600501805461042b90610b4c565b80601f016020809104026020016040519081016040528092919081815260200182805461045790610b4c565b80156104a45780601f10610479576101008083540402835291602001916104a4565b820191906000526020600020905b81548152906001019060200180831161048757829003601f168201915b5050505050905086565b60015490565b600181815481106104c457600080fd5b9060005260206000200160009150905080546104df90610b4c565b80601f016020809104026020016040519081016040528092919081815260200182805461050b90610b4c565b80156105585780601f1061052d57610100808354040283529160200191610558565b820191906000526020600020905b81548152906001019060200180831161053b57829003601f168201915b505050505081565b60606000606080600060606000808860405161057c9190610a77565b90815260200160405180910390206040518060c00160405290816000820180546105a590610b4c565b80601f01602080910402602001604051908101604052809291908181526020018280546105d190610b4c565b801561061e5780601f106105f35761010080835404028352916020019161061e565b820191906000526020600020905b81548152906001019060200180831161060157829003601f168201915b505050505081526020016001820154815260200160028201805461064190610b4c565b80601f016020809104026020016040519081016040528092919081815260200182805461066d90610b4c565b80156106ba5780601f1061068f576101008083540402835291602001916106ba565b820191906000526020600020905b81548152906001019060200180831161069d57829003601f168201915b505050505081526020016003820180546106d390610b4c565b80601f01602080910402602001604051908101604052809291908181526020018280546106ff90610b4c565b801561074c5780601f106107215761010080835404028352916020019161074c565b820191906000526020600020905b81548152906001019060200180831161072f57829003601f168201915b505050505081526020016004820154815260200160058201805461076f90610b4c565b80601f016020809104026020016040519081016040528092919081815260200182805461079b90610b4c565b80156107e85780601f106107bd576101008083540402835291602001916107e8565b820191906000526020600020905b8154815290600101906020018083116107cb57829003601f168201915b5050509190925250508151602083015160408401516060850151608086015160a090960151939e929d50909b5099509297509550909350505050565b82805461083090610b4c565b90600052602060002090601f0160209004810192826108525760008555610898565b82601f1061086b57805160ff1916838001178555610898565b82800160010185558215610898579182015b8281111561089857825182559160200191906001019061087d565b506108a49291506108a8565b5090565b5b808211156108a457600081556001016108a9565b600082601f8301126108cd578081fd5b813567ffffffffffffffff808211156108e8576108e8610b87565b604051601f8301601f19168101602001828111828210171561090c5761090c610b87565b604052828152848301602001861015610923578384fd5b82602086016020830137918201602001929092529392505050565b60006020828403121561094f578081fd5b813567ffffffffffffffff811115610965578182fd5b610971848285016108bd565b949350505050565b60008060008060008060c08789031215610991578182fd5b863567ffffffffffffffff808211156109a8578384fd5b6109b48a838b016108bd565b97506020890135965060408901359150808211156109d0578384fd5b6109dc8a838b016108bd565b955060608901359150808211156109f1578384fd5b6109fd8a838b016108bd565b94506080890135935060a0890135915080821115610a19578283fd5b50610a2689828a016108bd565b9150509295509295509295565b600060208284031215610a44578081fd5b5035919050565b60008151808452610a63816020860160208601610b1c565b601f01601f19169290920160200192915050565b60008251610a89818460208701610b1c565b9190910192915050565b600060208252610aa66020830184610a4b565b9392505050565b600060c08252610ac060c0830189610a4b565b8760208401528281036040840152610ad88188610a4b565b90508281036060840152610aec8187610a4b565b905084608084015282810360a0840152610b068185610a4b565b9998505050505050505050565b90815260200190565b60005b83811015610b37578181015183820152602001610b1f565b83811115610b46576000848401525b50505050565b600281046001821680610b6057607f821691505b60208210811415610b8157634e487b7160e01b600052602260045260246000fd5b50919050565b634e487b7160e01b600052604160045260246000fdfea2646970667358221220f790cf44dfcf17bfc7fd60484f1626d6f86d2712e7bde6ee0b9599b9821dab3264736f6c63430008000033",
  "immutableReferences": {},
  "source": "// SPDX-License-Identifier: MIT\npragma solidity ^0.8.0;\n\ncontract GarmentScanner {\n    struct ScanData {\n        string scanId;\n        uint256 timestamp;\n        string fabricType;\n        string garmentType;\n        uint256 conditionScore;\n        string recommendation;\n    }\n    \n    mapping(string => ScanData) public scans;\n    string[] public scanIds;\n    \n    event ScanStored(string indexed scanId, uint256 timestamp);\n    \n    function storeScanData(\n        string memory _scanId,\n        uint256 _timestamp,\n        string memory _fabricType,\n        string memory _garmentType,\n        uint256 _conditionScore,\n        string memory _recommendation\n    ) public {\n        scans[_scanId] = ScanData(\n            _scanId,\n            _timestamp,\n            _fabricType,\n            _garmentType,\n            _conditionScore,\n            _recommendation\n        );\n        scanIds.push(_scanId);\n        emit ScanStored(_scanId, _timestamp);\n    }\n    \n    function getScanCount() public view returns (uint256) {\n        return scanIds.length;\n    }\n    \n    function getScanById(string memory _scanId) public view returns (\n        string memory,\n        uint256,\n        string memory,\n        string memory,\n        uint256,\n        string memory\n    ) {\n        ScanData memory data = scans[_scanId];\n        return (\n            data.scanId,\n            data.timestamp,\n            data.fabricType,\n            data.garmentType,\n            data.conditionScore,\n            data.recommendation\n        );\n    }\n}",
  "sourcePath": "/Users/MarthaAgyeman/Desktop/fabricclassifier/contracts/Garment.scanner.sol",
  "compiler": {
    "name": "solc",
    "version": "0.8.0+commit.c7dfd78e.Emscripten.clang"
  },
  "schemaVersion": "3.4.16",
  "updatedAt": "2025-05-11T23:05:52.929Z",
  "networkType": "ethereum",
  "devdoc": {
    "kind": "dev",
    "methods": {},
    "version": 1
  },
  "userdoc": {
    "kind": "user",
    "methods": {},
    "version": 1
  }
}